{
  "contractName": "Election",
  "abi": [
    {
      "inputs": [],
      "stateMutability": "nonpayable",
      "type": "constructor"
    },
    {
      "inputs": [],
      "name": "admin",
      "outputs": [
        {
          "internalType": "address",
          "name": "",
          "type": "address"
        }
      ],
      "stateMutability": "view",
      "type": "function",
      "constant": true
    },
    {
      "inputs": [],
      "name": "candidateCount",
      "outputs": [
        {
          "internalType": "uint256",
          "name": "",
          "type": "uint256"
        }
      ],
      "stateMutability": "view",
      "type": "function",
      "constant": true
    },
    {
      "inputs": [
        {
          "internalType": "uint256",
          "name": "",
          "type": "uint256"
        }
      ],
      "name": "candidates",
      "outputs": [
        {
          "internalType": "string",
          "name": "name",
          "type": "string"
        },
        {
          "internalType": "uint256",
          "name": "voteCount",
          "type": "uint256"
        }
      ],
      "stateMutability": "view",
      "type": "function",
      "constant": true
    },
    {
      "inputs": [],
      "name": "electionState",
      "outputs": [
        {
          "internalType": "enum Election.State",
          "name": "",
          "type": "uint8"
        }
      ],
      "stateMutability": "view",
      "type": "function",
      "constant": true
    },
    {
      "inputs": [
        {
          "internalType": "address",
          "name": "",
          "type": "address"
        }
      ],
      "name": "hasVoted",
      "outputs": [
        {
          "internalType": "bool",
          "name": "",
          "type": "bool"
        }
      ],
      "stateMutability": "view",
      "type": "function",
      "constant": true
    },
    {
      "inputs": [
        {
          "internalType": "address",
          "name": "",
          "type": "address"
        }
      ],
      "name": "voters",
      "outputs": [
        {
          "internalType": "bool",
          "name": "",
          "type": "bool"
        }
      ],
      "stateMutability": "view",
      "type": "function",
      "constant": true
    },
    {
      "inputs": [],
      "name": "addVoter",
      "outputs": [],
      "stateMutability": "nonpayable",
      "type": "function"
    },
    {
      "inputs": [
        {
          "internalType": "string",
          "name": "_name",
          "type": "string"
        }
      ],
      "name": "addCandidate",
      "outputs": [],
      "stateMutability": "nonpayable",
      "type": "function"
    },
    {
      "inputs": [],
      "name": "startElection",
      "outputs": [],
      "stateMutability": "nonpayable",
      "type": "function"
    },
    {
      "inputs": [
        {
          "internalType": "uint256",
          "name": "_candidateId",
          "type": "uint256"
        }
      ],
      "name": "vote",
      "outputs": [],
      "stateMutability": "nonpayable",
      "type": "function"
    },
    {
      "inputs": [],
      "name": "endElection",
      "outputs": [],
      "stateMutability": "nonpayable",
      "type": "function"
    },
    {
      "inputs": [
        {
          "internalType": "uint256",
          "name": "_candidateId",
          "type": "uint256"
        }
      ],
      "name": "getCandidate",
      "outputs": [
        {
          "internalType": "string",
          "name": "name",
          "type": "string"
        },
        {
          "internalType": "uint256",
          "name": "voteCount",
          "type": "uint256"
        }
      ],
      "stateMutability": "view",
      "type": "function",
      "constant": true
    },
    {
      "inputs": [
        {
          "internalType": "address",
          "name": "_user",
          "type": "address"
        }
      ],
      "name": "isAdmin",
      "outputs": [
        {
          "internalType": "bool",
          "name": "",
          "type": "bool"
        }
      ],
      "stateMutability": "view",
      "type": "function",
      "constant": true
    },
    {
      "inputs": [
        {
          "internalType": "address",
          "name": "_user",
          "type": "address"
        }
      ],
      "name": "isVoter",
      "outputs": [
        {
          "internalType": "bool",
          "name": "",
          "type": "bool"
        }
      ],
      "stateMutability": "view",
      "type": "function",
      "constant": true
    }
  ],
  "bytecode": "0x60806040523480156200001157600080fd5b50336000806101000a81548173ffffffffffffffffffffffffffffffffffffffff021916908373ffffffffffffffffffffffffffffffffffffffff16021790555060008060146101000a81548160ff021916908360028111156200007a576200007962000345565b5b0217905550620000c56040518060400160405280600b81526020017f43616e64696461746520310000000000000000000000000000000000000000008152506200011160201b60201c565b6200010b6040518060400160405280600b81526020017f43616e64696461746520320000000000000000000000000000000000000000008152506200011160201b60201c565b62000579565b60008054906101000a900473ffffffffffffffffffffffffffffffffffffffff1673ffffffffffffffffffffffffffffffffffffffff163373ffffffffffffffffffffffffffffffffffffffff1614620001a2576040517f08c379a00000000000000000000000000000000000000000000000000000000081526004016200019990620003fb565b60405180910390fd5b60006002811115620001b957620001b862000345565b5b600060149054906101000a900460ff166002811115620001de57620001dd62000345565b5b1462000221576040517f08c379a000000000000000000000000000000000000000000000000000000000815260040162000218906200046d565b60405180910390fd5b6040518060400160405280828152602001600081525060016000600454815260200190815260200160002060008201518160000190805190602001906200026a92919062000295565b5060208201518160010155905050600460008154809291906200028d90620004c8565b919050555050565b828054620002a39062000544565b90600052602060002090601f016020900481019282620002c7576000855562000313565b82601f10620002e257805160ff191683800117855562000313565b8280016001018555821562000313579182015b8281111562000312578251825591602001919060010190620002f5565b5b50905062000322919062000326565b5090565b5b808211156200034157600081600090555060010162000327565b5090565b7f4e487b7100000000000000000000000000000000000000000000000000000000600052602160045260246000fd5b600082825260208201905092915050565b7f4f6e6c792061646d696e2063616e20706572666f726d2074686973206163746960008201527f6f6e000000000000000000000000000000000000000000000000000000000000602082015250565b6000620003e360228362000374565b9150620003f08262000385565b604082019050919050565b600060208201905081810360008301526200041681620003d4565b9050919050565b7f456c656374696f6e2068617320616c7265616479207374617274656400000000600082015250565b600062000455601c8362000374565b915062000462826200041d565b602082019050919050565b60006020820190508181036000830152620004888162000446565b9050919050565b7f4e487b7100000000000000000000000000000000000000000000000000000000600052601160045260246000fd5b6000819050919050565b6000620004d582620004be565b91507fffffffffffffffffffffffffffffffffffffffffffffffffffffffffffffffff82036200050a57620005096200048f565b5b600182019050919050565b7f4e487b7100000000000000000000000000000000000000000000000000000000600052602260045260246000fd5b600060028204905060018216806200055d57607f821691505b60208210810362000573576200057262000515565b5b50919050565b6116db80620005896000396000f3fe608060405234801561001057600080fd5b50600436106100ea5760003560e01c806359f784681161008c578063a3ec138d11610066578063a3ec138d14610225578063a7771ee314610255578063a9a981a314610285578063f851a440146102a3576100ea565b806359f78468146102075780635f9bb8e31461021157806362d73eb81461021b576100ea565b806324d7806c116100c857806324d7806c146101595780633477ee2e1461018957806335b8e820146101ba578063462e91ec146101eb576100ea565b80630121b93f146100ef57806309eef43e1461010b5780632280043d1461013b575b600080fd5b61010960048036038101906101049190610e2d565b6102c1565b005b61012560048036038101906101209190610eb8565b61051b565b6040516101329190610f00565b60405180910390f35b61014361053b565b6040516101509190610f92565b60405180910390f35b610173600480360381019061016e9190610eb8565b61054e565b6040516101809190610f00565b60405180910390f35b6101a3600480360381019061019e9190610e2d565b6105a7565b6040516101b1929190611055565b60405180910390f35b6101d460048036038101906101cf9190610e2d565b610653565b6040516101e2929190611055565b60405180910390f35b610205600480360381019061020091906111ba565b61076d565b005b61020f6108e1565b005b610219610a12565b005b610223610b6f565b005b61023f600480360381019061023a9190610eb8565b610ca0565b60405161024c9190610f00565b60405180910390f35b61026f600480360381019061026a9190610eb8565b610cc0565b60405161027c9190610f00565b60405180910390f35b61028d610d16565b60405161029a9190611203565b60405180910390f35b6102ab610d1c565b6040516102b8919061122d565b60405180910390f35b600160028111156102d5576102d4610f1b565b5b600060149054906101000a900460ff1660028111156102f7576102f6610f1b565b5b14610337576040517f08c379a000000000000000000000000000000000000000000000000000000000815260040161032e90611294565b60405180910390fd5b600360003373ffffffffffffffffffffffffffffffffffffffff1673ffffffffffffffffffffffffffffffffffffffff16815260200190815260200160002060009054906101000a900460ff166103c3576040517f08c379a00000000000000000000000000000000000000000000000000000000081526004016103ba90611300565b60405180910390fd5b600260003373ffffffffffffffffffffffffffffffffffffffff1673ffffffffffffffffffffffffffffffffffffffff16815260200190815260200160002060009054906101000a900460ff1615610450576040517f08c379a00000000000000000000000000000000000000000000000000000000081526004016104479061136c565b60405180910390fd5b6004548110610494576040517f08c379a000000000000000000000000000000000000000000000000000000000815260040161048b906113d8565b60405180910390fd5b6001600082815260200190815260200160002060010160008154809291906104bb90611427565b91905055506001600260003373ffffffffffffffffffffffffffffffffffffffff1673ffffffffffffffffffffffffffffffffffffffff16815260200190815260200160002060006101000a81548160ff02191690831515021790555050565b60026020528060005260406000206000915054906101000a900460ff1681565b600060149054906101000a900460ff1681565b60008060009054906101000a900473ffffffffffffffffffffffffffffffffffffffff1673ffffffffffffffffffffffffffffffffffffffff168273ffffffffffffffffffffffffffffffffffffffff16149050919050565b60016020528060005260406000206000915090508060000180546105ca9061149e565b80601f01602080910402602001604051908101604052809291908181526020018280546105f69061149e565b80156106435780601f1061061857610100808354040283529160200191610643565b820191906000526020600020905b81548152906001019060200180831161062657829003601f168201915b5050505050908060010154905082565b60606000600454831061069b576040517f08c379a0000000000000000000000000000000000000000000000000000000008152600401610692906113d8565b60405180910390fd5b6000600160008581526020019081526020016000206040518060400160405290816000820180546106cb9061149e565b80601f01602080910402602001604051908101604052809291908181526020018280546106f79061149e565b80156107445780601f1061071957610100808354040283529160200191610744565b820191906000526020600020905b81548152906001019060200180831161072757829003601f168201915b505050505081526020016001820154815250509050806000015181602001519250925050915091565b60008054906101000a900473ffffffffffffffffffffffffffffffffffffffff1673ffffffffffffffffffffffffffffffffffffffff163373ffffffffffffffffffffffffffffffffffffffff16146107fb576040517f08c379a00000000000000000000000000000000000000000000000000000000081526004016107f290611541565b60405180910390fd5b6000600281111561080f5761080e610f1b565b5b600060149054906101000a900460ff16600281111561083157610830610f1b565b5b14610871576040517f08c379a0000000000000000000000000000000000000000000000000000000008152600401610868906115ad565b60405180910390fd5b6040518060400160405280828152602001600081525060016000600454815260200190815260200160002060008201518160000190805190602001906108b8929190610d40565b5060208201518160010155905050600460008154809291906108d990611427565b919050555050565b60008054906101000a900473ffffffffffffffffffffffffffffffffffffffff1673ffffffffffffffffffffffffffffffffffffffff163373ffffffffffffffffffffffffffffffffffffffff161461096f576040517f08c379a000000000000000000000000000000000000000000000000000000000815260040161096690611541565b60405180910390fd5b6001600281111561098357610982610f1b565b5b600060149054906101000a900460ff1660028111156109a5576109a4610f1b565b5b146109e5576040517f08c379a00000000000000000000000000000000000000000000000000000000081526004016109dc90611294565b60405180910390fd5b6002600060146101000a81548160ff02191690836002811115610a0b57610a0a610f1b565b5b0217905550565b60006002811115610a2657610a25610f1b565b5b600060149054906101000a900460ff166002811115610a4857610a47610f1b565b5b14610a88576040517f08c379a0000000000000000000000000000000000000000000000000000000008152600401610a7f906115ad565b60405180910390fd5b600360003373ffffffffffffffffffffffffffffffffffffffff1673ffffffffffffffffffffffffffffffffffffffff16815260200190815260200160002060009054906101000a900460ff1615610b15576040517f08c379a0000000000000000000000000000000000000000000000000000000008152600401610b0c90611619565b60405180910390fd5b6001600360003373ffffffffffffffffffffffffffffffffffffffff1673ffffffffffffffffffffffffffffffffffffffff16815260200190815260200160002060006101000a81548160ff021916908315150217905550565b60008054906101000a900473ffffffffffffffffffffffffffffffffffffffff1673ffffffffffffffffffffffffffffffffffffffff163373ffffffffffffffffffffffffffffffffffffffff1614610bfd576040517f08c379a0000000000000000000000000000000000000000000000000000000008152600401610bf490611541565b60405180910390fd5b60006002811115610c1157610c10610f1b565b5b600060149054906101000a900460ff166002811115610c3357610c32610f1b565b5b14610c73576040517f08c379a0000000000000000000000000000000000000000000000000000000008152600401610c6a90611685565b60405180910390fd5b6001600060146101000a81548160ff02191690836002811115610c9957610c98610f1b565b5b0217905550565b60036020528060005260406000206000915054906101000a900460ff1681565b6000600360008373ffffffffffffffffffffffffffffffffffffffff1673ffffffffffffffffffffffffffffffffffffffff16815260200190815260200160002060009054906101000a900460ff169050919050565b60045481565b60008054906101000a900473ffffffffffffffffffffffffffffffffffffffff1681565b828054610d4c9061149e565b90600052602060002090601f016020900481019282610d6e5760008555610db5565b82601f10610d8757805160ff1916838001178555610db5565b82800160010185558215610db5579182015b82811115610db4578251825591602001919060010190610d99565b5b509050610dc29190610dc6565b5090565b5b80821115610ddf576000816000905550600101610dc7565b5090565b6000604051905090565b600080fd5b600080fd5b6000819050919050565b610e0a81610df7565b8114610e1557600080fd5b50565b600081359050610e2781610e01565b92915050565b600060208284031215610e4357610e42610ded565b5b6000610e5184828501610e18565b91505092915050565b600073ffffffffffffffffffffffffffffffffffffffff82169050919050565b6000610e8582610e5a565b9050919050565b610e9581610e7a565b8114610ea057600080fd5b50565b600081359050610eb281610e8c565b92915050565b600060208284031215610ece57610ecd610ded565b5b6000610edc84828501610ea3565b91505092915050565b60008115159050919050565b610efa81610ee5565b82525050565b6000602082019050610f156000830184610ef1565b92915050565b7f4e487b7100000000000000000000000000000000000000000000000000000000600052602160045260246000fd5b60038110610f5b57610f5a610f1b565b5b50565b6000819050610f6c82610f4a565b919050565b6000610f7c82610f5e565b9050919050565b610f8c81610f71565b82525050565b6000602082019050610fa76000830184610f83565b92915050565b600081519050919050565b600082825260208201905092915050565b60005b83811015610fe7578082015181840152602081019050610fcc565b83811115610ff6576000848401525b50505050565b6000601f19601f8301169050919050565b600061101882610fad565b6110228185610fb8565b9350611032818560208601610fc9565b61103b81610ffc565b840191505092915050565b61104f81610df7565b82525050565b6000604082019050818103600083015261106f818561100d565b905061107e6020830184611046565b9392505050565b600080fd5b600080fd5b7f4e487b7100000000000000000000000000000000000000000000000000000000600052604160045260246000fd5b6110c782610ffc565b810181811067ffffffffffffffff821117156110e6576110e561108f565b5b80604052505050565b60006110f9610de3565b905061110582826110be565b919050565b600067ffffffffffffffff8211156111255761112461108f565b5b61112e82610ffc565b9050602081019050919050565b82818337600083830152505050565b600061115d6111588461110a565b6110ef565b9050828152602081018484840111156111795761117861108a565b5b61118484828561113b565b509392505050565b600082601f8301126111a1576111a0611085565b5b81356111b184826020860161114a565b91505092915050565b6000602082840312156111d0576111cf610ded565b5b600082013567ffffffffffffffff8111156111ee576111ed610df2565b5b6111fa8482850161118c565b91505092915050565b60006020820190506112186000830184611046565b92915050565b61122781610e7a565b82525050565b6000602082019050611242600083018461121e565b92915050565b7f456c656374696f6e206973206e6f7420696e2070726f67726573730000000000600082015250565b600061127e601b83610fb8565b915061128982611248565b602082019050919050565b600060208201905081810360008301526112ad81611271565b9050919050565b7f4e6f74207265676973746572656420746f20766f746500000000000000000000600082015250565b60006112ea601683610fb8565b91506112f5826112b4565b602082019050919050565b60006020820190508181036000830152611319816112dd565b9050919050565b7f416c726561647920766f74656400000000000000000000000000000000000000600082015250565b6000611356600d83610fb8565b915061136182611320565b602082019050919050565b6000602082019050818103600083015261138581611349565b9050919050565b7f496e76616c69642063616e646964617465000000000000000000000000000000600082015250565b60006113c2601183610fb8565b91506113cd8261138c565b602082019050919050565b600060208201905081810360008301526113f1816113b5565b9050919050565b7f4e487b7100000000000000000000000000000000000000000000000000000000600052601160045260246000fd5b600061143282610df7565b91507fffffffffffffffffffffffffffffffffffffffffffffffffffffffffffffffff8203611464576114636113f8565b5b600182019050919050565b7f4e487b7100000000000000000000000000000000000000000000000000000000600052602260045260246000fd5b600060028204905060018216806114b657607f821691505b6020821081036114c9576114c861146f565b5b50919050565b7f4f6e6c792061646d696e2063616e20706572666f726d2074686973206163746960008201527f6f6e000000000000000000000000000000000000000000000000000000000000602082015250565b600061152b602283610fb8565b9150611536826114cf565b604082019050919050565b6000602082019050818103600083015261155a8161151e565b9050919050565b7f456c656374696f6e2068617320616c7265616479207374617274656400000000600082015250565b6000611597601c83610fb8565b91506115a282611561565b602082019050919050565b600060208201905081810360008301526115c68161158a565b9050919050565b7f416c726561647920726567697374657265640000000000000000000000000000600082015250565b6000611603601283610fb8565b915061160e826115cd565b602082019050919050565b60006020820190508181036000830152611632816115f6565b9050919050565b7f57726f6e6720656c656374696f6e207374617465000000000000000000000000600082015250565b600061166f601483610fb8565b915061167a82611639565b602082019050919050565b6000602082019050818103600083015261169e81611662565b905091905056fea26469706673582212203f74126c0583b0a597e624c054111587a56eeee13a2af3776c633bb6ce42cac064736f6c634300080e0033",
  "immutableReferences": {},
  "source": "// SPDX-License-Identifier: MIT\r\npragma solidity >=0.4.0 <0.9.0;\r\n\r\ncontract Election {\r\n    enum State { NotStarted, InProgress, Ended }\r\n    \r\n    struct Candidate {\r\n        string name;\r\n        uint256 voteCount;\r\n    }\r\n    \r\n    address public admin;\r\n    State public electionState;\r\n    mapping(uint256 => Candidate) public candidates;\r\n    mapping(address => bool) public hasVoted;\r\n    mapping(address => bool) public voters;\r\n    uint256 public candidateCount;\r\n    \r\n    constructor() {\r\n        admin = msg.sender;\r\n        electionState = State.NotStarted;\r\n        // Add default candidates\r\n        addCandidate(\"Candidate 1\");\r\n        addCandidate(\"Candidate 2\");\r\n    }\r\n    \r\n    modifier onlyAdmin() {\r\n        require(msg.sender == admin, \"Only admin can perform this action\");\r\n        _;\r\n    }\r\n    \r\n    function addVoter() public {\r\n        require(electionState == State.NotStarted, \"Election has already started\");\r\n        require(!voters[msg.sender], \"Already registered\");\r\n        voters[msg.sender] = true;\r\n    }\r\n    \r\n    function addCandidate(string memory _name) public onlyAdmin {\r\n        require(electionState == State.NotStarted, \"Election has already started\");\r\n        candidates[candidateCount] = Candidate(_name, 0);\r\n        candidateCount++;\r\n    }\r\n    \r\n    function startElection() public onlyAdmin {\r\n        require(electionState == State.NotStarted, \"Wrong election state\");\r\n        electionState = State.InProgress;\r\n    }\r\n    \r\n    function vote(uint256 _candidateId) public {\r\n        require(electionState == State.InProgress, \"Election is not in progress\");\r\n        require(voters[msg.sender], \"Not registered to vote\");\r\n        require(!hasVoted[msg.sender], \"Already voted\");\r\n        require(_candidateId < candidateCount, \"Invalid candidate\");\r\n        \r\n        candidates[_candidateId].voteCount++;\r\n        hasVoted[msg.sender] = true;\r\n    }\r\n    \r\n    function endElection() public onlyAdmin {\r\n        require(electionState == State.InProgress, \"Election is not in progress\");\r\n        electionState = State.Ended;\r\n    }\r\n    \r\n    function getCandidate(uint256 _candidateId) public view \r\n        returns (string memory name, uint256 voteCount) \r\n    {\r\n        require(_candidateId < candidateCount, \"Invalid candidate\");\r\n        Candidate memory candidate = candidates[_candidateId];\r\n        return (candidate.name, candidate.voteCount);\r\n    }\r\n    \r\n    function isAdmin(address _user) public view returns (bool) {\r\n        return _user == admin;\r\n    }\r\n    \r\n    function isVoter(address _user) public view returns (bool) {\r\n        return voters[_user];\r\n    }\r\n}\r\n",
  "sourcePath": "C:\\Users\\EliteBook\\Desktop\\Icat25\\icat_rebase_fixes_devote\\contracts\\Voting.sol",
  "compiler": {
    "name": "solc",
    "version": "0.8.14+commit.80d49f37.Emscripten.clang"
  },
  "schemaVersion": "3.4.16",
  "updatedAt": "2025-02-10T21:17:49.947Z",
  "networkType": "ethereum",
  "devdoc": {
    "kind": "dev",
    "methods": {},
    "version": 1
  },
  "userdoc": {
    "kind": "user",
    "methods": {},
    "version": 1
  }
}